:10000000AEC100000C94521BC7C10000C5C1000066
:10001000C3C10000C1C10000BFC10000BDC10000DC
:10002000BBC10000B9C100000C9438200C9405211C
:100030000C94041AB1C10000AFC10000ADC10000B2
:10004000ABC10000A9C10000A7C10000A5C100000C
:10005000A3C100000C947B1A9FC100009DC1000049
:100060009BC1000099C1000097C1000095C100002C
:1000700093C1000091C100008FC100008DC100003C
:100080008BC1000089C1000087C1000085C100004C
:1000900083C1000081C100007FC100007DC100005C
:1000A0007BC1000079C1000077C1000000000D0095
:1000B000120018001300360000000C0004000800B5
:1000C00011001A000000310014001D000900050095
:1000D0000000000050004F002152E100000000002D
:1000E000E300E6002B00225237000E0007001C0040
:1000F0000A0000000F00150017001600060000009F
:100100001B000B00100019003500000028002C0017
:10011000520051000000000022522A002900E00095
:1001200000000000000025023300260234003602E1
:1001300000001E001F0020002100220000005400CB
:100140001F022F0021021E020000000024022F02C5
:100150000100010000000000010001000100010099
:1001600037023402270233022E020000230024004B
:10017000250026002700000038022E003000220251
:10018000200200002D022D0030022302000000009A
:10019000010001000100010000000000000000005B
:1001A000AC00AB00A900277800000000AD00AE0055
:1001B000AA0028780000000000000000A80000004D
:1001C00000000000B600B7000100010000000000C0
:1001D0000100010001000100D900DB00CD00DC00BE
:1001E0000000007CDA00CF00CE00D000000000004C
:1001F0000000D100D200000000000000010001005A
:1002000000000000000000000100010001000100EA
:1002100000000000280344006100630074007900BE
:100220006C0020004D0061006E00750066006F00DC
:1002300072006D00200034007800360000000E03CC
:100240007400730068006F00720074000000040303
:10025000090409023B00020100A0FA0904000001A0
:100260000301010009211101000122440007058159
:100270000308000109040100010300000009211125
:10028000010001227B00070582032000011201000A
:1002900002000000084D443634010001020001054F
:1002A000010902A10185020901A10005091901291D
:1002B000081500250195087501810205010930091D
:1002C000311581257F95027508810609381581252C
:1002D0007F950175088106050C0A38021581257F76
:1002E000950175088106C0C005010980A10185033B
:1002F00019012AB700150126B70095017510810074
:10030000C0050C0901A101850419012AA0021501EB
:1003100026A002950175108100C005010906A10102
:10032000050719E029E715002501950875018102E7
:100330009501750881010507190029FF150026FFA1
:100340000095067508810005081901290515002585
:1003500001950575019102950175039101C0112464
:100360001FBECFEFDAE0DEBFCDBF11E0A0E0B1E00D
:10037000ECE4F7E402C005900D92AE3AB107D9F76C
:1003800022E0AEEAB1E001C01D92AD3BB207E1F759
:100390000E94CA120C94652333CE8330B8F46A30BD
:1003A000A8F4463098F450E096E0699F400D511D46
:1003B0001124FA019CE3899FE00DF11D1124EE0F39
:1003C000FF1FE455FF4F85919491089581E090E0DF
:1003D0000895E3CF089581E00895FDCF0895FBCF00
:1003E000089581E00895F7CF0895F5CF0895FDCFE2
:1003F000089508950895FDCF089508950895A6E0FD
:10040000B0E0E5E0F2E00C94D82249835A839E8361
:100410003091B50189819A81311117C03E81332312
:1004200089F0222379F08ED5182F682F89819A813F
:1004300068D569817A81812F0E94AE0D2696E3E00E
:100440000C94F4226FD5182FF4CF7CD569817A8172
:10045000F3CFFC01262F4081518162817381848119
:100460009581CDCFCF93DF93EC0161E0F2DFBE0148
:10047000B4DF882349F061E0CE01EBDFBE01AFDFDE
:100480008170DF91CF91089580E0FACF0F931F9391
:10049000CF93DF93EC0160E0DCDF8C01BE01AADFCB
:1004A000BE01C801A8DFDF91CF911F910F91089580
:1004B00021E030E0A90102C0440F551F8A95E2F700
:1004C000CA0158C4CF93C82F81E090E00C2E02C01F
:1004D000880F991F0A94E2F70E94BE0B8C2FE8DF69
:1004E000CF91089581E00895FDCF0895FBCF089541
:1004F000CF93C82FF7D38C2FF7DF8C2FF7DF2FEF99
:1005000084E39CE0215080409040E1F700C000006F
:10051000CF91089581E0ECDF0C949F1A80E0E8DF32
:100520000C94B01A0F931F93CF93DF938C0161E06B
:1005300090DFEC01B80157DF811106C080E0DF9148
:10054000CF911F910F910895B801CE0150DF8823FC
:10055000A9F3B801CE010E940D18882379F3B801E0
:10056000CE010E946714882349F3B801CE010E948E
:100570003F14882319F3B801CE010E94EC0E8823A2
:10058000E9F2F8018581882361F0C330FCE7DF07D9
:10059000D9F050F4C115ECE7DE07A1F0C130DC471B
:1005A000A9F0C8011EDFCBCFCB358CE7D80799F077
:1005B000CC35ECE7DE0761F0CA35DC4791F70E94E5
:1005C000870BEFCFA7DFBACF0E94B60BA7DFB6CF5E
:1005D0000E947F0BE6CF0E94890BE3CF0EDF0E94C3
:1005E000CC1917C018D00ADF0C94D01981E00895F7
:1005F0000895CF93DF93D82FF9DFC82F882311F008
:100600008D2FF6DF8C2FDF91CF9108950895F1CFD4
:10061000089580E0FCCF0E945518F9CFCF930E9437
:100620005518C82F8091B0018C1771F0C093B0019C
:100630000E946F1A6093B1017093B2018093B3016D
:100640009093B4018C2FE3DFCF910895ADE0B0E03B
:10065000ECE2F3E00C94D922488759876A877B87BC
:100660008C879D879111A1D71F8286E0FE01389665
:10067000DE01119601900D928A95E1F78D8181112D
:100680000CC029813A814B815C816D817E818F8193
:10069000DCD62D96E2E00C94F522CE010196E2DE46
:1006A0008111EFCFF6CFFC012481213019F4808134
:1006B000918179C40895662321F00E94C4150C9499
:1006C0008F160E941616FBCFCF93C82F8823B9F040
:1006D0008238B9F40E946A1881FD11C089E30E9432
:1006E0002919CBD72FEF87EE93E02150804090401F
:1006F000E1F700C0000089E30E942F19BED7CF9117
:100700000895833899F40E946A1880FDF8CF83E534
:100710000E942919B2D72FEF81EE94E0215080403A
:100720009040E1F700C0000083E5E6CF843899F4FB
:100730000E946A1882FDE3CF87E40E9429199DD7A1
:100740002FEF81EE94E0215080409040E1F700C00F
:10075000000087E4D1CF8CEF8C0F813A90F48C2F7E
:100760000E946E138111CBCF8C2F0E94EE1888232C
:1007700021F08C2F0E942F1980D78C2F0E942919CD
:10078000BDCF80E28C0F883040F4C77081E001C09B
:10079000880FCA95EAF7ECD6B1CFEBE5EC0FE33062
:1007A00040F4F0E0EB59FE4F808190E00E948B18FE
:1007B000A6CFE8E5EC0FEB3150F4F0E0EE0FFF1FB1
:1007C000E15DFE4F808191810E94B21898CF83E352
:1007D0008C0F833108F093CF61E08C2F6CDF8FCFCB
:1007E000882309F44DC0823861F40E946A1881FFA1
:1007F00047C089E30E94291940D789E30E942F1935
:100800003CC7833851F40E946A1880FF39C083E5E1
:100810000E94291932D783E5F1CF843851F40E9420
:100820006A1882FF2DC087E40E94291926D787E421
:10083000E5CF9CEF980F913A08F390E2980F98302B
:1008400048F4877091E001C0990F8A95EAF7892FE3
:1008500095D6D6CF9BE5980F933020F490E080E0BA
:100860000C948B1898E5980F9B3120F490E080E071
:100870000C94B21893E3980F933110F460E01BCFFF
:1008800008951F93CF93DF93182FEB011DDF20975F
:1008900031F4812FA5DFDF91CF911F9108958FE96A
:1008A0009FE00197F1F700C000002197F0CF70E0C2
:1008B00060E0893311F460E570E0E3CF882311F044
:1008C00057D6DBC60895882311F058D6D6C60895AA
:1008D000B0E0A0E0EEE6F4E00C94D2226C01D62F5A
:1008E000C72FFC011581068102950F7037D6E82EBF
:1008F0008823E9F0E12E1123D1F08C2F807F803402
:1009000061F080E28D0F8830F8F08C2F807E80328D
:1009100021F4D230C8F00023B9F08091910282FF17
:1009200013C082E0C6D61AD691E0E82EE926BC2E86
:10093000B2949FE0B922FBE0FB1580F1EB2DF0E0D3
:10094000E959FC4D0C94C322E12CF1CF0C2F0F7010
:10095000C07F11F00295007F112381F0002349F040
:1009600080E28D0F883010F0D11105C0802F00D6A5
:1009700084D68D2F40C0802F0BD6FACF8D2F30DF3D
:10098000002361F080E28D0F883010F0D11103C098
:10099000802FF4D502C0802F01D66FD6EB2DE85002
:1009A000FF0B349708F04CC10E94551830DECDB7CC
:1009B000DEB7E9E00C94EE222C2F2F70F22EC07FD0
:1009C000C03219F0F29480EFF822DD2341F0D130EB
:1009D00081F1112309F439C00023C9F0CACF8091F5
:1009E000910282FD10C0112341F0FF2019F08F2DDC
:1009F000BFD543D680E068DED1CF80E0F1DEFF20B6
:100A000069F28F2DC6CF112359F0011103C08F2D2C
:100A100055DFC4CF013009F0C1CF8F2DDAD5BECF5D
:100A20000111BCCF8F2D4FDF8F2DDED58F2DC3D57C
:100A3000B5CF112321F0063008F0B0CFE8CF053054
:100A400008F0ACCF8F2D3FDFA9CF0023D9F3D933E6
:100A500049F43FEF87EE93E0315080409040E1F75A
:100A600000C000008D2FBCDE99CF8C2F8695869517
:100A7000837069F0813009F091CF8D2F9C2F937096
:100A8000111102C080E090E00E94B21887CF8D2F34
:100A90009C2F9370111102C080E090E00E948B188F
:100AA0007DCF612F8D2F07DE79CF8C2F837081F55D
:100AB000111174CF4D2F429546954770440F440F46
:100AC0002D2F2F7030E0042E02C0220F331F0A9406
:100AD000E2F790E080E0D4FF09C08FE090E002C030
:100AE000880F991F4A95E2F780959095C695C6950F
:100AF000C370822B932BC23039F040F4C13011F017
:100B000042D14CCF39D14ACF45D148CF33D146CF4E
:100B10008695112311F08C2F8170882309F43ECF24
:100B20004D2F429546954770440F440F2D2F2F703F
:100B300030E0042E02C0220F331F0A94E2F790E047
:100B400080E0D4FF09C08FE090E002C0880F991FB9
:100B50004A95E2F780959095C695C695C370822B0D
:100B6000932BC23039F040F4C13011F067D116CF69
:100B70005ED114CF6AD112CF1AD110CFCF7011230A
:100B800021F08C2F28D18D2F43CF8D2F9CDE8C2FE1
:100B900030D104CFD23F39F160F4D03FB9F0D13F2A
:100BA00081F0112309F43CC00111E3CE8C2F8F7129
:100BB0001EC0D33FF1F0D43FA1F78091910282FD96
:100BC00020C08C2F8F71112319F311C0112339F01C
:100BD000053008F0E3CE8C2F8F711BD1DFCE0630AD
:100BE00008F0DCCEF8CF8C2F8F711111D1CFF3D05C
:100BF000D5CE112321F08C2F8F71E3D0CFCEDED054
:100C0000CDCE112329F063E08C2F8F713BD5C6CE5A
:100C100081E04FD5023008F4C1CE82E04AD5BECE85
:100C2000002359F0D93309F01DCFEFEFF7EE23E0A1
:100C3000E150F0402040E1F713CF8C2F8F71A8CF07
:100C4000EE2009F4B4CE86D480FDB1CEF601158233
:100C50007BD4C1D0C60117D077D4CBD0A8CE0F9308
:100C60001F93CF93DF93EC01688179818D81A4D1AB
:100C70008C01F2D07ED0B801CE012ADEDF91CF9177
:100C80001F910F910895CF93DF93EC018C818823FE
:100C900081F0CE0147DC81110FC060D4882349F078
:100CA0008D81882331F08091910282FF02C082E021
:100CB00000D5DF91CF910895CE01D1DFCE01E6DBE3
:100CC000F8CF90E080E00E948B1890E080E00E94D6
:100CD000B2186BD4D2D40E94A8160C948F160E941E
:100CE0003519EFCF52D4FBCF92959F70963091F08B
:100CF00058F4925F9F70923058F4803F19F030F4AE
:100D0000883E30F481E008959A5FF4CF843FD1F3B8
:100D100080E00895883EB0F3813FD1F7F3CFFC0126
:100D20002481222321F0808191813DD1DDCF80E09B
:100D30000895A6E0B0E0EFE9F6E00C94D9222696FB
:100D4000E2E00C94F522A7E0B0E0E9EAF6E00C94CA
:100D5000D9222796E2E00C94F5220895FECF08955B
:100D6000FDCF0895FADFFCDF9093D9018093D8017D
:100D700008950895F7CF08952091D8013091D901B1
:100D8000822B932BEFCF2091D8013091D901822370
:100D90009323E8CF2091D8013091D901822793275E
:100DA000E1CFDBCF0895FDCF0895D7CF0895FDDFC4
:100DB000FADF9093D7018093D601089590E080E008
:100DC000F6CF21E030E0A90102C0440F551F8A95FB
:100DD000E2F7CA01ECCF21E030E002C0220F331F5E
:100DE0008A95E2F78091D6019091D701822B932BBF
:100DF000DECF21E030E002C0220F331F8A95E2F7F8
:100E0000209530958091D6019091D701822393232C
:100E1000CECF21E030E002C0220F331F8A95E2F7E7
:100E20008091D6019091D70182279327C0CF20913E
:100E3000D6013091D701822B932BB9CF2091D601C7
:100E40003091D70182239323B2CF2091D6013091E4
:100E5000D70182279327ABCF0895262F277091E0E3
:100E600001C0990F2A95EAF723E0769567952A95B0
:100E7000E1F7660F771F660F771FFA01E60FF71F7E
:100E800050E040E0682F70E08191DF0111979B01F5
:100E9000042E02C0369527950A94E2F72170219519
:100EA0002827292328272C934F5F5F4F4430510573
:100EB00059F70895A82FA77023E0969587952A954E
:100EC000E1F7880F991F880F991FFB01E80FF91FA1
:100ED00050E040E080E0219130E00A2E02C03695DB
:100EE00027950A94E2F721703327042E01C0220FC0
:100EF0000A94EAF7822B4F5F5F4F4430510559F750
:100F00000895262F9A3068F4863058F4682F70E0E0
:100F100086E0989F600D711D112446EB51E0822FF1
:100F20009CCF0895292F9A3058F4863048F490E0E9
:100F300066EB71E036E0239F800D911D1124BACF3E
:100F400080E00895B0E0A0E0E8EAF7E00C94D22257
:100F50007C010091D6011091D7018091D801909128
:100F6000D901082B192BCFE0D0E0CC24C394D12C8D
:100F7000BC2EC6010C2E02C0880F991F0A94E2F7FE
:100F800080239123892B49F4219790F7B12C8B2D45
:100F9000CDB7DEB7E9E00C94EE22B7018C2FE9D58E
:100FA000019791F3F4CFCF93DF93EC01CBDFBE0138
:100FB000E0D5DF91CF9108951F93CF93DF93EB019D
:100FC0009091B501992331F0CB01EDDFDF91CF9105
:100FD0001F910895882351F0CB01B4DF182F682F9B
:100FE000CE018FDFBE01812FC4D5F0CFCB019ADFB8
:100FF000182FF8CF1F93CF93DF93C091DA0117E03A
:101000008091DB018C1304C0DF91CF911F91089573
:10101000D0E01C9FF0011D9FF00D1124E452FE4F03
:1010200020813181428153816481758186818BDE8B
:101030002196C770E5CF209114023091150240919E
:101040001602509117026091180270911902809156
:101050001A0279CECF93DF9380911A02807F09F034
:101060004BC080911902882309F446C0E091DA014F
:101070005091DB01C0911502D091140260911602CB
:101080007091170247E05E17B9F18E2F90E0E49F50
:10109000F0011124E452FE4F2481222381F1489F64
:1010A000F001499FF00D1124DF01A452BE4F1196AB
:1010B0002C9111972C1323C02C912D1320C0159621
:1010C0002C91159721111BC012962D913C91261B36
:1010D000370B283C310598F480911A028F7080619B
:1010E00080931A02EE51FE4F80818F708061808361
:1010F00084E192E0C8DD7EDFDF91CF910895FC01AD
:101100003196E770C0CF482F2091DA019091DB0132
:1011100057E0291302C080E0089530E0529FF001AB
:10112000539FF00D1124E452FE4F8181681306C0D5
:101130008081481303C085818111EECF2F5F3F4F1F
:101140002770E7CFA4E1B0E0E8EAF8E00C94CF2202
:101150008C0186E0F801DE011F9601900D928A95C0
:10116000E1F7D80114968C9114971596EC90159789
:1011700094E1A92E92E0B92E9091180291111AC013
:101180008823A9F0EE2089F0C801C9DDF82E882354
:1011900061F087E0F801D50101900D928A95E1F7A1
:1011A000C50181DA57DF47DF3AC0C8016CDDFF2493
:1011B000F39435C0F801C080D18082809380F09094
:1011C00019022091160230911702A401421B530B01
:1011D000FF2009F4E7C0483C510508F09AC0882375
:1011E000F1F09091150280911A02282F207F09F0CA
:1011F00060C09D1119C090911402C91215C0E11070
:1012000052C08F70806180931A0215DF84E192E0F2
:101210003ADD80911A02D80116968C93F12C8F2D0D
:101220006496ECE00C94EB22E1103DC06D2D8C2D0A
:101230006ADFE82E882361F084E192E024DD87E014
:10124000E4E1F2E0DF011D928A95E9F7F4DEE6CFF2
:10125000CF86D88A8F859889A6DE292F22952F7070
:10126000243058F49F70223080F0992391F0F801D7
:101270009681907F71F4FE2CD2CF2A5F2F7022309E
:1012800060F0C80100DDEF2CF6CF992311F0882320
:1012900091F3805E883078F3F4CF803F60F3815F14
:1012A000833078F7E8CF80911A02816080931A0228
:1012B000B5CF9D1107C090911402C91203C0EE2052
:1012C00009F494C0C8012BDD882309F46ECFEE2009
:1012D00009F46BCF80911A02803280F020911402C1
:1012E00030911502398728879B868A86909118024B
:1012F0009C871D868E87CE010896C5DC87E0F801A5
:10130000A4E1B2E001900D928A95E1F7A3DE93DEAD
:101310004ECF90911A02292F207F81F4682D9A8A4E
:10132000898AA6017A899E2D04DD84E192E0ABDCF6
:1013300087E0F50111928A95E9F788CF882309F4AF
:101340006ECF809115028D1110C080911402C812C9
:101350000CC0E1100AC016969C93C80194DC87E08B
:10136000F50111928A95E9F75ACFC801D8DC882394
:1013700009F41BCFEE2009F418CF80911A028032B5
:1013800008F4BCCF20911402309115023A832983CE
:101390009C828B82909118029D831E828F83CE0146
:1013A0000196ABCF483C510508F042C0882309F4B0
:1013B000FECEFE2CEE2009F4F8CE809115028D11A0
:1013C0002BC080911402C81227C080911A0280FDA0
:1013D0001AC0982F907FB9F016968C931697903F6D
:1013E00039F0982F907F905F8F70892B16968C9391
:1013F000C80149DC87E0F801A4E1B2E001900D9258
:101400008A95E1F7D0CE87E0F801A4E1B2E001903F
:101410000D928A95E1F703CFC80181DC81116ECF6F
:1014200080911A02816080931A02C8012CDCF7CEE9
:10143000682D9A8A898AA6017A899E2D7ADC87E0AE
:10144000F50111928A95E9F7AECEAEE0B0E0EBE29D
:10145000FAE00C94D822288739874A875B876C8703
:101460007D878E87CE0108966DDE8823A9F06C8576
:10147000662339F0288539854A855B857D858E858B
:1014800062DC17E08091DA019091DB0189133BC0A7
:101490002E96E3E00C94F42287E0FE013896DE01FC
:1014A000119601900D928A95E1F78C85882349F376
:1014B0002091DB0130E0C9010196877099274091A6
:1014C000DA014817190691F097E0929FD001939F97
:1014D000B00D1124A452BE4FFE01319601900D9221
:1014E0009A95E1F78093DB0185DDCBCFFBDB109292
:1014F000DB011092DA0187E0E4E1F2E0DF011D9206
:101500008A95E9F7BECF819FC001112484529E4F76
:1015100019DE882309F4BCCFE091DA011E9FF001A7
:101520001124E452FE4F2081318142815381648134
:101530007581868108DC8091DA0190E001968770E0
:1015400099278093DA019ECF809123028695869514
:1015500086950895809123028770089590912302C3
:10156000977081E009F480E0089580912F0208953A
:1015700090912F02892B80932F020895809590914E
:101580002F02982390932F02089510922F0208950E
:1015900090912E02892B80932E0208958095909130
:1015A0002E02982390932E02089510922E020895F1
:1015B0000895FECF089590912402292F282329F021
:1015C0008095892380932402F4CF08950895FECF57
:1015D000089590912502292F2823281721F0982B70
:1015E00090932502F4CF089590912502292F282366
:1015F00029F08095892380932502E9CF0895809171
:101600002502882321F01092250280E0E0CF089582
:101610000F931F93CF93DF9300910001109101016D
:10162000C0912F0280912E02C82B80912502882321
:1016300029F0C82B0E94D9188111E1DFF801C0837D
:10164000C0910001D091010148E050E06BE172E0EF
:10165000CE010E941423892B59F088E0FE01ABE1F2
:10166000B2E001900D928A95E1F7CE010E946C18CC
:10167000DF91CF911F910F910895CACF08950895DA
:10168000FECF08959091910292FF0EC098E0899F3D
:1016900090011124622B609323029DDB8091230231
:1016A000869586958695ECCF96CB1092230280E0A6
:1016B000E7CF909123028095892380932302282FDE
:1016C000277059F4891749F09091910292FF05C053
:1016D0008695869586958DDBE8CF08959091910249
:1016E00092FB222720F9281749F080FB92F990936A
:1016F000910280E992E046D082E0DBCF08958091AC
:10170000910282FB882780F991E08927E7CF81E069
:10171000E5CF80E0E3CF60E070E0CB01BCC360E0E8
:1017200070E0CB01B2D3F7CFA3E0B0E0EAE9FBE091
:101730000C94D92263D36ED31B82CE01039681D33E
:1017400081E090E09093D9018093D80186D31A82EA
:1017500019828A8184618A83CE0101968FD3DFDF6B
:101760002396E2E00C94F522DFCF089559C3089543
:1017700046C308955BC308956AC308956EC3089570
:1017800071C308957BC308958CC30895A6E0B0E0AB
:10179000ECECFBE00C94D7220E94631A8C01809140
:1017A0003002909131028017910781F019821A82DC
:1017B0000E94631A682F49815A81792F80E090E056
:1017C0000E94260310933102009330022696E4E033
:1017D0000C94F322E6D2609340027093410280930E
:1017E00042029093430260933C0270933D028093C7
:1017F0003E0290933F02089508950895FDCF089505
:101800000895FEDFFBCF0895FECF08950895FEDF13
:10181000FBCF81E008958AEE9EE0CCD6EEDFF1CFDB
:10182000E5C40895089508950895FCDFFCDFFCCF1A
:101830009FDF811101C098DF84E492E09BDF80E9A3
:1018400092E09EDF99DF96DA8091D6019091D701E0
:10185000AACA0E945A1A80D2CED426D4E9DF0E94A6
:101860000603F5D7D5D4D3CFA6E0B0E0EAE3FCE099
:101870000C94D022CEDF81110AC088DFB7D40E9439
:10188000CA160E940E032696EBE00C94EC222BD491
:1018900082E3A82E82E0B82E750110E0F7010191D5
:1018A0007F01812F09D31F5F1A3009F43DC008174B
:1018B000A9F38091440281FD05D3B2DFC82E10E068
:1018C00099249394812FF8D2082FF50181915F011B
:1018D000081729F1F12CEE24E394D02ED8268D2D73
:1018E0008E21A9F0CC2099F0F9821A830E94631A04
:1018F0009C838B839D8291E0802F8E2109F490E060
:1019000049815A816B817C818D810E942603F394E9
:10191000EE0CF6E0FF12E3CFF501319700831F5F75
:101920001A3081F657DFAACF0813C3CFA6CF1F9373
:10193000CF93DF9320D1EC01C11580E5D807F0F5F6
:10194000C11580E4D80708F09AC0C03ED10520F543
:10195000CD3CD10508F082C0C83AD10578F4C53A2B
:10196000D10508F073C0C130D10519F1209709F1F4
:10197000C430D105F0F4D0E0C0E01BC0C33CD105B9
:10198000D0F7C85AD0E0CC0FDD1FC859DE4F099000
:10199000D881C02DD4640DC0C11580E2D80708F0ED
:1019A000CDC0C11581E0D80708F05AC0C83ED105A6
:1019B00010F7CE01DF91CF911F910895C03682E5D7
:1019C000D80718F5C03482E5D80708F068C0C032DF
:1019D00082E5D80708F05CC0C11582E5D80708F495
:1019E00093C02C2F2695269580E2289F90011124E4
:1019F0008C2F8370C1E0D0E002C0CC0FDD1F8A9530
:101A0000E2F7C22BD32BDD68D4CFC03A82E5D807EA
:101A100060F4C03882E5D80708F456C0CF71D0E032
:101A2000DC2FCC27C46FD06AC4CFC03C82E5D80776
:101A300008F45FC0C03E82E5D80708F09CCFDC2FD9
:101A4000CC27CC27DF71C06FD06AB3CFC55AD0E0A6
:101A5000C256DE4FC881D0E0D064ABCFD065A9CFED
:101A60008D2F2BD1182FCE01992785D0C12FD0E0F3
:101A7000DC2FCC27CC27DF71C82BD92B9ACFCE01F6
:101A8000992779D0CC27DF70C82BD92BD06A91CF7A
:101A9000CF71D0E0DC2FCC27C16FD06A8ACF2C2F3A
:101AA00026952695277080E2289F900111248C2F7F
:101AB0008370C1E0D0E002C0CC0FDD1F8A95E2F751
:101AC000C22BD32BDC6875CF2C2F2695269527703B
:101AD00080E2289F900111248C2F8370C1E0D0E018
:101AE00002C0CC0FDD1F8A95E2F7C22BD32BDA6838
:101AF00060CF8C2F8F71E1D0C82FD0E0DC2FCC27A6
:101B0000CC27DF71D06255CF8C2F8F71D6D055E0A6
:101B1000D695C7955A95E1F7CF70D0E0DC2FCC274A
:101B2000282F30E084FF06C044E0220F331F4A957F
:101B3000E1F73327C22BD32BD0693BCF8D2F8F7189
:101B4000BCD0182FCE01992716D0C12FD0E0DC2FA2
:101B5000CC27CC27DF71C82BD92BD4CF462F7A3096
:101B600028F4663018F4672F0C94E90190E080E0C7
:101B70000895F4DFDCCE82389105B9F1B0F48133F9
:101B8000910509F47DC048F48932910509F46DC0CE
:101B90008A32910509F47BC008958533910509F4D3
:101BA0005FC08933910509F10895833E9105D9F10C
:101BB00038F4803E910529F1823E910579F108952E
:101BC000863E9105D9F1873E910509F43EC0843ED9
:101BD000910541F52091910221FF24C0809190024E
:101BE00084FD19C087EE90E0089520919002237043
:101BF00009F05AC02091910223FF14C089E290E0BD
:101C000008952091900220FD38C03091910230FF5C
:101C100009C024FF43C090E080E008952091900225
:101C200022FDF7CF08952091900222FD3AC0309115
:101C3000910230FD39C024FFF5CFEDCF2091900205
:101C400023FFF0CF24FDE7CFCDCF2091900223FDDD
:101C50002EC03091910231FFEECF84EE90E00895D6
:101C60002091900225FFDECFC9CF2091900225FD63
:101C700021C02091910223FFD5CF89E390E0D2CFFC
:101C80002091900226FFCECF8AE290E00895209125
:101C9000900226FFC7CF81E390E0089583EE90E0A5
:101CA000089582EE90E0089580EE90E0089586EE2B
:101CB00090E0089585E390E008959091900292FF5E
:101CC00010C041E0282F2471243009F040E031E0B9
:101CD000282F2871283009F030E0431711F02CE04C
:101CE000822793FF10C041E0282F2471243109F08E
:101CF00040E031E0282F2871283109F030E0431707
:101D000011F02CE082273091910230FF10C051E099
:101D1000282F2171213009F050E041E0282F28714F
:101D2000283009F040E0541711F029E0822731FFF4
:101D300010C041E0282F2171213109F040E031E04D
:101D4000282F2871283109F030E0431711F029E0DD
:101D5000822794FD877E089510929202109293023A
:101D600010929402109295020895CF92DF92EF9212
:101D7000FF926B017C013AD281110EC00E946F1A52
:101D8000C61AD70AE80AF90AC0929202D0929302C0
:101D9000E0929402F0929502FF90EF90DF90CF9046
:101DA00008950F931F9322D2882329F00E946F1A5F
:101DB0001F910F9108950E946F1A00919202109145
:101DC00093022091940230919502600F711F821F3F
:101DD000931FEECF80E00895CF939C01205E3245A3
:101DE000C1E02032310538F4FB01C581C11103C0C7
:101DF0008F710E9462028C2FCF910895089590E018
:101E000080E00E94322321E0833E9E4F09F020E0D3
:101E1000822F089563EE7EEF90E080E00C945123D2
:101E20006FEF7FEF90E080E00C945123CF93DF932E
:101E3000EC0182E090E00E942A238883DF91CF9119
:101E40000895FC01608182E090E00C94372383E0E8
:101E500090E00E942A2390E00895682F83E090E0AC
:101E60000C943723CF93DF93EC0184E090E00E9441
:101E7000322399838883DF91CF910895FC0160819B
:101E8000718184E090E00C945123AB01BC018FE0A0
:101E900090E00C944923AB01BC0183E190E00C94E9
:101EA0004923682F8EE090E00C9437230895FECFED
:101EB00008950895FECF0895E82FF0E0EF55FD4F07
:101EC00080810895089580EA8A95F1F7089500C009
:101ED0000895F9CF08950895FECF0895A5E0B0E0E4
:101EE000E4E7FFE00C94D52281D1F82E6091AB029B
:101EF000882309F43EC085E0E82E8E010F5F1F4F56
:101F0000F8018E2D11928A95E9F7862F90E0B8019D
:101F10008F559D4F89D18823B1F08091960290E032
:101F200045E050E0B8018F559D4F0E94142321E0F9
:101F300020934502892B89F4F12CBCDF8F2D259647
:101F4000E6E00C94F122809145028823A9F3F80180
:101F50001192EA94E9F710924502A0919602B0E03E
:101F6000AF55BD4F85E0F80101900D928A95E1F7DC
:101F7000E4CF70E06F557D4F8091960290E08F55D1
:101F80009D4FD7D1A9DFDACFF894E82FE295EF7013
:101F9000F0E031A1282F2F7081E090E001C0880F80
:101FA0002A95EAF7982F9095932391A392A1892BD4
:101FB00082A3789408950F931F93CF93DF93C7EA7A
:101FC000D1E089918F3F09F0DFDF81E0CC3AD8077B
:101FD000C1F7C1EAD1E007EA11E089918F3F09F02A
:101FE000D3DF0C171D07C9F7DF91CF911F910F9118
:101FF0000895B0E0A0E0EFEFFFE00C94D322EC01F5
:10200000D62E062F10E0C80189559E4F7C01FC0199
:1020100080818F3F09F441C0F894E82FE295EF707A
:10202000F0E091A18F7021E030E001C0220F8A958D
:10203000EAF7892F822B81A382A12095282322A34E
:10204000789445DFE1EAF1E031E0C12C21912F3FA6
:1020500049F1A22FA295AF70B0E090968C9190E0DC
:102060002F7002C0959587952A95E2F780FD1AC0DA
:10207000832FC82A330F81E0E73AF80739F7F701D1
:1020800080818F3F09F080DF61E0C11001C060E016
:102090008D2D1FDFC00FD11FC882CDB7DEB7E8E09E
:1020A0000C94EF2280E0E5CF809102018091020143
:1020B00095E0811190E09093AB0285E0891B8093BD
:1020C000960279DF8AE0E1EAF2E0DF01982F1D92C3
:1020D0009A95E9F7E7E9F2E0DF011D928A95E9F7C1
:1020E00085E03CD0E4CEAAE0B0E0E9E7F0E10C9472
:1020F000D6228E010F5F1F4F8AE0F80111928A9558
:10210000E9F7F12C6F2DC80174DFF394F5E0FF12AD
:10211000F9CF4AE050E0B80187E992E00E94142329
:1021200021E0009709F420E0892B41F08AE0F801D2
:10213000A7E9B2E001900D928A95E1F76091AB02B8
:1021400070E06F557D4F45E087E992E008D0182F89
:10215000C5DE812B2A96E5E00C94F2220895B0E0CA
:10216000A0E0E5EBF0E10C94D3226C017B01042F9D
:10217000C22F222379F081E0809348020E94631AE3
:10218000909347028093460280E0CDB7DEB7E8E047
:102190000C94EF22D0914802DD23B1F380914602E6
:1021A000909147020E94E419059770F310E0A8018E
:1021B000B601C7010E941423892B31F0A801B60192
:1021C000C7010E942123CD2F109248028C2FDDCF12
:1021D000CF930E94A322C82F811102C00E949F2288
:1021E0008C2FCF91089580914C02089580914B02DD
:1021F0000895FCCF0895ECDF80934B02FADF8093C3
:102200004C02F1DF80930201F1DF811142C0089599
:10221000EDDF811101C040C0089581E090914D0231
:102220009A3008F080E008950F931F93CF93DF93C7
:10223000EC018B0180914D028A30B0F4B801CE01DF
:1022400076D0C82F811122C080914D028F3FB9F402
:102250000E94631A90934A02809349028C2FDF9167
:10226000CF911F910F9108958091490290914A0258
:102270000E94E419843F914008F7C0E0EFCF8F5FE0
:1022800080934D028A3020F7C1E0E8CF10924D02D2
:10229000E5CF0C940F1B08950C94121B0895B0E029
:1022A000A0E0E5E5F1E10C94D4227901C82F880F74
:1022B000DD0B41155105A9F0FE0193E0EE0FFF1F64
:1022C0009A95E1F7ED5FFE4F81819281825B9D4F90
:1022D000208130E04217530708F49A01A9010E94B7
:1022E0002123CE010E94F21BD82E8823D1F00115A4
:1022F0001105B9F083E0CC0FDD1F8A95E1F7FE01EF
:10230000ED5FFE4F438150E00417150708F4A80164
:10231000CD5FDE4F6C817D81625B7D4FC7010E9486
:1023200021238D2DCDB7DEB7E7E00C94F022E7C076
:102330000895FAC00895A4E0B0E0E1EAF1E10C9458
:10234000D722609165027091660280916702909138
:1023500068020E94ED1911E064367105810591054E
:1023600008F11FDD6E5F7F4F8F4F9F4F69837A8328
:102370008B839C8310E000E030E020E044E050E0FC
:10238000BE016F5F7F4F82E08ADF182F882351F0F4
:102390000E946F1A609365027093660280936702D1
:1023A00090936802812F2496E4E00C94F322B0E02D
:1023B000A0E0EDEDF1E10C94D1227C015B016A011A
:1023C0002CDF01E010E0882311F00AE010E0C1E00A
:1023D000D0E0B501C701F6010995811104C021962D
:1023E0000C171D072CF4CDB7DEB7EAE00C94ED22F4
:1023F000CC9F9001CD9F300D300D112490E080E0F6
:1024000045E34A95F1F70000019682179307C1F75B
:10241000E0CFA6E0B0E0EFE0F2E10C94D1227B0146
:10242000C090AC01D090AD0101E010E09E012A5FA8
:102430003F4F50E040E070E060E080E030DF182F78
:10244000882309F444C056018FEFA81AB80A609196
:102450006102709162028091630290916402BDD723
:10246000643671058105910558F105E010E09E0183
:102470002F5F3F4F50E040E070E060E081E00FDF11
:10248000D82E65E070E0C501E3D111E09E8198137C
:1024900010E01D2139F10E946F1A60936102709360
:1024A0006202809363029093640285E0FE0131969C
:1024B000ACE5B2E001900D928A95E1F711E012C00F
:1024C00065E070E0C501C4D19E818913CECF85E05F
:1024D000F6013196DE01119601900D928A95E1F791
:1024E0001111E3CF85E0ECE5F2E0D70101900D9208
:1024F0008A95E1F7812F2696EAE00C94ED220F935E
:102500001F93CF93DF93EC018B0149E052E14FDF42
:10251000882329F04BE951E1B801CE0148DFDF9172
:10252000CF911F910F9108950F931F93CF93DF9336
:10253000C091AC01D091AD01CE01019625E0FB0127
:10254000DC0101900D922A95E1F765E070E080D101
:1025500088836E817F8188859985009158021091CA
:10256000590220915A0230915B026017710782076D
:10257000930749F0609358027093590280935A026E
:1025800090935B02F2DBDF91CF911F910F91089541
:102590006BC9089532D70E94861D3DD90E949E1DA9
:1025A00058D90E94A71D0E94AA1DF2DF0E94C01DDB
:1025B0003CD9F9CF9093AF018093AE0108958B3150
:1025C00009F464C040F58B3071F078F4863009F47A
:1025D00046C020F4853059F180E00895873009F431
:1025E00047C08830C9F781E00895803109F45CC0A4
:1025F00068F48E3089F790914402892F8B7F92FF87
:1026000084608093440282FD4BC0EDCF863159F344
:10261000893149F3E1CF8A3201F160F48732B1F0B8
:1026200020F48E31C8F28D514BC08932A9F60E9438
:102630008A02D9CF833440F48A3308F040C085330E
:1026400029F0883381F2C8CF833431F681E090E0FD
:102650000E94BA060E947206C6CF86D8C4CF809167
:102660004402807F8093440281E080936C0208954D
:1026700090914402892F8E7F90FF81608093440265
:1026800080FDB1CF817F80934402ADCF9091440211
:10269000892F8D7F91FF82608093440281FFA3CFB9
:1026A000809144028160EFCF90914402892F877F0F
:1026B00093FF88608093440283FDF2CF94CF8953C7
:1026C00021E030E0A90102C0440F551F8A95E2F7CE
:1026D000CA01BECF80E00895FDCF0895CF93C82FE3
:1026E00080916C028130A9F0882331F0823089F129
:1026F00010926C0280E00BC00E94B50A8232D1F7C2
:102700008C2FE8DF811119C08C2F59DF8170CF9198
:1027100008950E94B50A823299F38C2FDDDF811172
:102720000AC0C43199F060F4CB3029F0C03171F7A0
:1027300082E080936C0281E0E9CF81E090E0E6CF17
:10274000C93221F0C833B9F380E0E0CF10926C02B7
:10275000FBCFC93209F43FC0E8F4C431E1F128F4F9
:10276000C73009F45BC081E0D2CF82EE8C0F8A3093
:10277000D0F7CD51C0936B02C33009F446C0B0F519
:10278000C13009F43FC080E291E0C230B1F1109253
:102790006B02E9CFC03509F452C0B8F48AE0CF34F7
:1027A00011F7E0916902F0916A023097E1F220811D
:1027B000082E000C990B820F911D8F3F910509F097
:1027C0000CF441C08FEF8083CECFC135D1F181E0D1
:1027D000C23539F39CCF80916B02882321F210928D
:1027E0006B0210926A0210926902BDCFC53099F057
:1027F00078F08BE191E0C63051F690936A028093B5
:102800006902B1CF8FE692E0F8CF8FE191E0F5CF8A
:102810008EE191E0F2CF8CE191E0EFCF10926F0268
:1028200084E180932001C0931F018CE380931E01FB
:1028300088E080931C0188E280931B0194CF86EF8F
:10284000B0CF8FEFAECF97FFBECF10828CCF089561
:10285000FC01680F791F8FEF91E3E617F70709F482
:1028600008952191822728E030E087FF06C0880F75
:10287000892721503109C9F7F0CF880FFACFCF93BC
:10288000DF93EB0186319C4701F50E94B50A9D81DB
:10289000992391F08A7A91E009F490E090936D0287
:1028A000811108C089E2D5D40E943D0B80E0DF9100
:1028B000CF91089585E3F7CF80916D02811103C018
:1028C00089E2CDD4F1CF85E3FCCF81E0F0CFCF9387
:1028D000DF93EC01FB018581882309F4CEC09E01C2
:1028E00030572332310508F0AEC080E992E00E94F3
:1028F000C00BFE01E150F047E232F10520F4ED5843
:10290000FC4D0C94C32280919002816080939002D0
:1029100093C0809191028860809391028DC08091D4
:1029200090028260F3CF809190028460EFCF80911B
:1029300090028860EBCF809191028160EDCF809111
:1029400091028260E9CF809190028061DFCF809117
:1029500090028062DBCF809190028064D7CF0E948A
:102960007206809190028068D1CF809190028C6035
:10297000CDCF809191028360CFCF809190028E7FE6
:10298000C5CF80919102877FC7CF809190028D7FC4
:10299000BDCF809190028B7FB9CF80919002877FCD
:1029A000B5CF809191028E7FB7CF809191028D7FBC
:1029B000B3CF809190028F7EA9CF809190028F7DBE
:1029C000A5CF809190028F7BA1CF0E94720680914B
:1029D00090028F779BCF80919002837F97CF8091D9
:1029E00091028C7F99CF8091900282FB992790F978
:1029F00021E0922790FB82F990FB83F987CF8091A9
:102A00009102982F909591708E7F892B90FB81F980
:102A100083CF90919002892F8F7B96FF806476CF31
:102A20000E94720690919002892F97FB87F9805837
:102A30006DCF81E00E94C40B80E992E00E94C20B3E
:102A40000E94720680E0DF91CF91089580E0F2CF7E
:102A500090919002892F8F7E94FF806157CF909143
:102A60009002892F8E7F90FF816050CF90919102CC
:102A7000892F877F93FF88604FCF81E0E4CF282F95
:102A800035EB2303C001112497FF04C0805891093E
:102A9000892F089580589F4FFBCF8091760280FF49
:102AA0000DC060911F0170E0660F771F60387105DF
:102AB00070F56115710569F1862F089581FF07C0D2
:102AC00060911F0184E0689FB0011124EFCF6091F5
:102AD0001F0182FD0AC0809175028823A9F0209110
:102AE0001E0160911F01821710F088E0ECCF869FD5
:102AF000C001112433E0880F991F3A95E1F7622F46
:102B000070E00E94B022D2CF68E070E0D5CF8FE7AE
:102B1000089581E008958091760280FF0CC0609155
:102B20001C0170E075956795759567956115710540
:102B300049F1862F089581FF06C060911C0170E065
:102B400075956795F3CF60911C0182FD0BC0909144
:102B500074029923A1F060911B0180911C019617CA
:102B600038F0682F70E06038710500F38FE7089542
:102B7000899FC001112470E00E94B022F4CF61E06F
:102B800070E0D7CF81E008958D3C29F486DF8195F0
:102B900080937A0208958E3C11F47FDFF9CF8F3C49
:102BA00029F47BDF8195809379020895803D11F4AB
:102BB00074DFF9CF893D21F4AEDF80937B02089565
:102BC0008A3D19F4A8DF8195F8CF8B3D29F4A3DF66
:102BD000819580937C0208958C3D11F49CDFF9CFA0
:102BE0009FE2980F983070F4815D990B21E030E0FE
:102BF00001C0220F8A95EAF780917802822B809398
:102C0000780208958D3D31F4809176028160809341
:102C1000760208958E3D21F4809176028260F7CF8E
:102C20008F3DB9F7809176028460F1CF40917902AF
:102C30008D3C59F480917A0287FF0DC010927A0280
:102C400041110BC01092750208C08E3C81F4809136
:102C50007A0218169CF3442381F080917B029091B4
:102C60007C02892B09F05AC01092740208958F3C9F
:102C700049F447FFF0CF1092790280917A028111D6
:102C8000ECCFE0CF803D19F41416ACF3E4CF909173
:102C90007B02893D29F41916F4F610927B02DBCFF2
:102CA0008A3D19F497FFD7CFF8CF90917C028B3DE6
:102CB00029F497FFD0CF10927C02CDCF8C3D19F430
:102CC0001916CCF3C8CF9FE2980F983090F4815D2D
:102CD000990B21E030E0B90102C0660F771F8A9599
:102CE000E2F7CB0180959091780289238093780256
:102CF000B2CF8D3D31F4809176028E7F8093760243
:102D0000AACF8E3D21F4809176028D7FF7CF8F3D43
:102D100009F0A1CF809176028B7FF0CF0895D3D3B5
:102D20009C019091790280917A02982B21F0309346
:102D300073022093720290917B0280917C02982B07
:102D400021F0309371022093700287E792E0D1C1A5
:102D500086E0E7E7F2E0DF011D928A95E9F710923D
:102D6000750210927402109276020895FC0182811D
:102D700081110EC0838181110BC08481811108C033
:102D800091E08581811101C090E0892F81700895C3
:102D900081E0FCCFA6E0B0E0E0EDF6E10C94D822B3
:102DA00086E0E7E7F2E0DE01119601900D928A9548
:102DB000E1F71092790210927A0210927B0210923F
:102DC0007C028B819C81892B81F080917202909191
:102DD0007302FAD2AC01909175029923A9F1809106
:102DE00020018417150608F43CC08D819E81892B33
:102DF00089F08091700290917102E6D2AC019091BD
:102E00007402992309F463C080911D01841715068B
:102E100008F46BC0BE016F5F7F4F87E792E030D24E
:102E2000811104C087E792E0A1DF811178DF86E09D
:102E3000FE013196A7E7B2E001900D928A95E1F785
:102E40002696E3E00C94F42220916F028AE0289FFA
:102E5000900111242417350740F69F5F9093750267
:102E600002C09F3FD1F71B81112351F016DE9FEF67
:102E700011160CF491E0899F802D11248093790222
:102E80001C81112351F009DE9FEF11160CF491E023
:102E9000899F802D112480937A0280917902882362
:102EA00009F4A3CF10917A02112309F49ECFE7DD34
:102EB000882349F080937902812FE1DD882329F06E
:102EC00080937A0292CF81E0F5CF81E0F9CF209113
:102ED0006E028AE0289F900111242417350708F01C
:102EE00099CF9F5F9093740202C09F3FD1F71D81DD
:102EF000112351F010DE9FEF11160CF491E0899F21
:102F0000802D112480937B021E81112351F003DE5A
:102F10009FEF11160CF491E0899F802D112480936E
:102F20007C0280917B02882309F474CF10917C028B
:102F3000112309F46FCFA3DD882349F080937B022E
:102F4000812F9DDD882329F080937C0263CF81E06F
:102F5000F5CF81E0F9CF0F931F93CF93DF93C42F69
:102F6000D22FFC0185818823C1F040937F02ABD230
:102F700090937E0280937D0280E28C0F883040F433
:102F8000C77081E001C0880FCA95EAF70E945E040D
:102F9000DF91CF911F910F91089510917F0214132B
:102FA00031C080917D0290917E020ED2883C9105C5
:102FB00048F5C0E2CD0F1D17B9F080E2810F8830CF
:102FC00040F4177081E001C0880F1A95EAF70E945B
:102FD0006304C83048F481E09D2F977001C0880FCA
:102FE0009A95EAF70E945E04802F0E945704C83029
:102FF00078F6D77081E001C0880FDA95EAF70E9471
:103000006304C6CF80E28C0F883010F6C77081E071
:1030100001C0880FCA95EAF7F2CF0F93DB01885100
:103020009C478730910598F5FC01EB56FC4D0C94BC
:10303000C32206E221EE41EE6AE17CE7CD018BDF9F
:1030400080E00F91089507E225EE45EE6BE17CE705
:10305000F5CF06E221EE40EE68E17CE7EFCF07E234
:1030600025EE44EE69E17CE7E9CF06E221EE42EE8F
:103070006CE17CE7E3CF07E225EE46EE6DE17CE70D
:10308000DDCF08E221E045EE6EE17CE7D7CF159673
:103090008C91882319F010927F02D3CF81E0D1CF99
:1030A00090938602809385020895A0D8811103C071
:1030B000809180020895E0918502F0918602309718
:1030C00039F00190F081E02D309711F009950895C5
:1030D00080E00895EACF0895E0918502F09186029C
:1030E000309731F00280F381E02D309709F0099597
:1030F0000895E0918502F0918602309759F026817B
:103100003781232B39F022E0DC012C930680F781F4
:10311000E02D09950895A3E0B0E0E1E9F8E10C9411
:10312000D922209183023091840228173907B1F007
:103130009093840280938302E0918502F09186024D
:10314000309761F00084F185E02D309739F023E06D
:1031500029839B838A83CE01019609952396E2E019
:103160000C94F522A3E0B0E0E8EBF8E10C94D9224E
:10317000209181023091820228173907B1F0909393
:10318000820280938102E0918502F091860230975D
:1031900061F00084F185E02D309739F024E0298337
:1031A0009B838A83CE01019609952396E2E00C94D5
:1031B000F52240910001509101019A012E5F3F4F8D
:1031C000485F5F4F80E02417350709F40895F9013F
:1031D00091919F019923B9F38F5FF5CF882371F007
:1031E0002091000130910101F9013296285F3F4F93
:1031F0009191981729F0E217F307D1F780E008952D
:1032000081E008959C01FC0132969FEF80E041919E
:10321000461751F09F3F19F4411101C0982F8F5F5D
:103220008630A9F79F3F09F40895290F311D97FDB6
:103230003A95F90162830895FC013296089621912E
:10324000261303C0DF0111971C92E817F907B9F79D
:103250000895682F8091000190910101D3CF682FCC
:103260008091000190910101E7CFE0910001F09180
:103270000101329686E0DF011D928A95E9F70895F3
:10328000DC01FB0111969C9111978181981322C05A
:1032900012968C911297882319F0928189131AC083
:1032A00013968C911397882319F09381891312C078
:1032B00015968C911597882319F0958189130AC06A
:1032C00014969C91992321F081E02481291303C055
:1032D00080E001C081E0817008950895FECF0895D7
:1032E00081110CC081E080932401609121017091D3
:1032F00022018091230190912401F0CF82E0F3CF4D
:1033000083E08093240160912101709122018091DA
:10331000230190912401E2CFE3CF089581E08093CF
:1033200024016091210170912201809123019091EB
:103330002401D4CFF3CF089591E0811101C090E032
:1033400090932301609121017091220180912301CA
:1033500090912401C3CF809123010895809322018D
:1033600060912101709122018091230190912401AB
:10337000B5CF8091220108958093210160912101B0
:10338000709122018091230190912401A7CF809117
:103390002101089508950895FECF08950895089590
:1033A000F9CF0895CF93FADF0E947310F8DFC0E0E1
:1033B0008C2F0E945C0F811105C0CF5FCA30C1F70E
:1033C000CF91089581E0FCCFCF93DF93EC017BD0C8
:1033D0008C1B9D0BDF91CF910895CF92DF92EF92DE
:1033E000FF926B017C017BD06C197D098E099F09CE
:1033F000FF90EF90DF90CF90089585B7806885BFEC
:1034000085B7806885BF08951F921FB61F9211244B
:103410008F939F93AF93BF9380918702811113C0C5
:103420008091AC029091AD02A091AE02B091AF023A
:103430004196A11DB11D8093AC029093AD02A09363
:10344000AE02B093AF02BF91AF919F918F911F9049
:103450001FBE1F9018958091B402843031F10E94F4
:10346000EE021092870288E190E020E40FB6F89413
:10347000A895809360000FBE2093600083B7817F82
:10348000846083BF83B7816083BF7894889583B756
:103490008E7F83BF0FB6F894A895809160008861F5
:1034A00080936000109260000FBE08950E94720623
:1034B0000C94F20282E084BD93E095BD9AEF97BD33
:1034C00080936E0008952FB7F8948091AC0290918C
:1034D000AD02A091AE02B091AF022FBF08952FB7F9
:1034E000F8946091AC027091AD028091AE0290911F
:1034F000AF022FBF089578941F921FB61F92112418
:103500008F939F93AF93BF938091AC029091AD0244
:10351000A091AE02B091AF020196A11DB11D8093A2
:10352000AC029093AD02A093AE02B093AF02BF91F4
:10353000AF919F918F911F901FBE1F90189587E7A5
:1035400097E7909301088093000888E19AE00FB60E
:10355000F894A895809360000FBE90936000FFCF11
:1035600088E19AE00FB6F894A895809360000FBEAA
:1035700090936000FFCF8EE1489B02C08150E1F73D
:10358000489BFECF0895589880E28A95F1F7589AA3
:103590000895FC013BE03A95F1F798E020E080E0E7
:1035A00031E040E14A95F1F7880F489B02C0816005
:1035B000232742E04A95F1F7000040E14A95F1F7F0
:1035C000915079F790E19A95F1F799B132E03A95F7
:1035D000F1F7000040E14A95F1F7917092272081C0
:1035E000920F90830895A1E0B0E0E8EFFAE1DDC723
:1035F00019828C017C01E60EF11C0E151F0539F4B1
:1036000081E09981911180E02196E6E0EAC7B3DF7D
:10361000CE010196BEDFF80181938F01EECF509A63
:10362000589A08955098589AE89AE9E6F0E080810F
:103630008C7F808308956150770B91E001C0990FD2
:103640006A95EAF720E031E0911108C0222391F059
:10365000589A80E28A95F1F758980895492F48239F
:1036600039F0589A232740E24A95F1F79695ECCF26
:103670005898F9CF5898EDCFFF920F931F93CF939F
:10368000DF93EC018C01060F111DC017D10721F447
:10369000CDB7DEB7E5E0A6C7F99075DF68E08F2DFE
:1036A000CADFF3CF1F920F920FB60F9211240F9320
:1036B0001F932F933F934F935F936F937F938F93BA
:1036C0009F93AF93BF93EF93FF93CF93DF930F92AB
:1036D000CDB7DEB719824FDFCE0101965ADF082F32
:1036E000069506950695282F22952570902F9570A2
:1036F000290F922F937026952695920F98279770F1
:103700008981982B09F058C0043008F055C080E139
:103710008A95F1F7589A509A82E08A95F1F700C09D
:10372000589888E0089F80011124D801AD5FBE4FF2
:103730001696ED91FC9117973097A9F06091AC0126
:103740007091AD0114962D913C911597260F371F5E
:1037500011968D919C911297680F791F13964C9139
:1037600013978C910995F801ED5FFE4F63816623F5
:1037700049F02091AC013091AD0184819581820F97
:10378000931F7ADF00DF80E18A95F1F7589850980F
:10379000589A80E18A95F1F7F801ED5FFE4F60815C
:1037A000662349F02091AC013091AD018181928175
:1037B000820F931F18DFDFDE0F90DF91CF91FF9113
:1037C000EF91BF91AF919F918F917F916F915F9199
:1037D0004F913F912F911F910F910F900FBE0F901E
:1037E0001F9018950F931F93CF93DF93EC010497CD
:1037F0000CF049C0F894509A589885E08A95F1F7F2
:1038000000009C2F969595708C2F8570980F892FAE
:1038100083709695969523E0CC0FDD1F2A95E1F7EE
:10382000980F8E01092BAFDE00C068E0802F03DF08
:1038300080E18A95F1F75098589A489B1DC087E01F
:1038400090E048991BC0FE01ED5FFE4F6381662347
:10385000F1F02091AC013091AD0184819581820F0E
:10386000931FC1DE811113C0509A589A7894DF914A
:10387000CF911F910F91089500C0DFCF019729F4D8
:10388000509A589A789480E0F2CF00C0DACF73DE75
:1038900080E28A95F1F75898509A80E18A95F1F77D
:1038A000CD5FDE4F6881662349F02091AC013091F5
:1038B000AD0189819A81820F931FDEDE64DE7894E8
:1038C00081E0D5CF08959B01BA019091B402943064
:1038D000E1F48F708093E9009FEF8091E8009150B0
:1038E00085FD06C085ED8A95F1F700009111F5CFB1
:1038F0008091E80085FF09C050E040E0C901B5D1E2
:103900008091E8008E778093E800089543E050E0CE
:10391000BC0182E0D8CF46E050E0BC0182E0D3CFCA
:10392000CF93DF93EC0117DD48E050E0BE0181E06A
:10393000CADF88E0FE01A8E8B2E001900D928A9506
:10394000E1F7DF91CF9108958091B302811107C013
:103950001AD371D38091E20084608093E2000895CD
:103960001092B3020895DADC81E0E6CC6091B002F7
:1039700081E0611101C080E0C3CC9091B40281E08C
:10398000943009F080E06091B002C6CC42E061EC76
:1039900081E075D242E261EC82E071D29091B40292
:1039A00081E0943009F080E06091B00299CC809180
:1039B000B602833009F45EC030F48130C1F1823048
:1039C00009F494C008958A3009F483C08B3009F457
:1039D0006BC0893009F04DC08091B502813209F089
:1039E00048C08091B9029091BA02029708F041C094
:1039F0008091E800877F8093E8008091E80082FF53
:103A000034C09091F3008091F200029731F48091DC
:103A1000F100813011F0863019F48091F1009EDCC4
:103A20008091E8008B778093E8005DD222C080917E
:103A3000B502813AF1F48091E800877F8093E80035
:103A40008091B9029091BA02892B59F468E088E814
:103A500092E070E057D18091E8008B778093E80086
:103A6000089560E090E080E0F4CF8091B40281118D
:103A7000C4CF08958091B502813AD9F78091B902F7
:103A80009091BA02892BA9F78091E800877F8093F3
:103A9000E8008091E80080FFFCCF5DDC8093F100BE
:103AA0008091E8008E77BFCF8091B502813209F70F
:103AB0008091B9029091BA02892BD9F68091E800E1
:103AC000877F8093E8000FD28091B70235DC0C9499
:103AD00072068091B502813261F68091E800877F9D
:103AE0008093E80000D28091B80246CC8091B50264
:103AF000813A09F0BECF8091E800877F8093E8008B
:103B00008091E80080FFFCCF42DCC8CF84B7877F7C
:103B100084BF0FB6F894A895809160008861809367
:103B20006000109260000FBE80E890E00FB6F8943D
:103B300080936100909361000FBEFCCB24D27BD2B6
:103B4000E2EEF0E08081846080837894DEC485E2D8
:103B500091E0A6CA8091B402853029F48091B40224
:103B6000853011F0A3CC089576DC1CDC8823B1F3FA
:103B70008091B202882391F362D00E947206EECF48
:103B800008959A014091BB025091BC0200C0492F98
:103B900055274330510519F168F44130510509F4B6
:103BA00044C04230510509F445C090E080E050E047
:103BB00040E025C04132510549F142325105A9F793
:103BC00084E490E04AE153E061157105C1F08BE7B0
:103BD00090E04FE952E06130710589F0E6CF992716
:103BE0008130910581F0009729F00297F1F6E4E128
:103BF000F2E002C0EEE4F2E0849190E0AF01F9015E
:103C0000518340830895EEE3F2E0F6CF89E090E03F
:103C100044E652E06115710591F389E090E04DE7CB
:103C200052E06130710559F3C0CF82E190E04DE878
:103C300052E0E5CF8BE390E042E552E0E0CF80E157
:103C400089BD82E189BD09B400FEFDCF8091D80015
:103C50008F7D8093D8008091E00082608093E000A7
:103C60008091E00081FDFCCF0895AF92BF92CF928A
:103C7000DF92FF920F931F93CF93DF936C01EB01C1
:103C80008A0150D1F82E811123C00115110539F098
:103C9000F80180819181C81BD90BC80ED91EB12CA7
:103CA000A12C2097A9F08091E80085FD21C080918A
:103CB000E8008E778093E80001151105A1F0F80166
:103CC00080819181A80EB91EB182A08285E0F82E74
:103CD0008F2DDF91CF911F910F91FF90DF90CF90AB
:103CE000BF90AF9008951ED18823D9F2F82EF0CF5F
:103CF000F60181916F018093F1002197FFEFAF1AD8
:103D0000BF0ACFCFFC018091BB029091BC02861705
:103D10009707A0F06115710529F49091E8009E774E
:103D20009093E80090E06115710551F4911108C07D
:103D30008091E80082FF34C080E00895BC01F2CF9A
:103D40008091B4028823C1F18530C1F18091E800EF
:103D500083FD30C08091E80082FDEACF8091E800C9
:103D600080FFE1CF8091F3002091F200382F6115A0
:103D7000710519F02830310558F091E028303105EF
:103D800009F090E02091E8002E772093E800CBCF57
:103D900081918093F100615071092F5F3F4FE7CF10
:103DA0008091B402882341F0853041F08091E80091
:103DB00083FFBECF81E0089582E0089583E00895F7
:103DC000FC018091BB029091BC0286179707A0F07E
:103DD0006115710529F48091E8008E778093E800E1
:103DE00090E06115710551F4911108C08091E800CF
:103DF00082FF35C080E00895BC01F2CF8091B4020B
:103E00008823C9F18530C9F18091E80083FD31C074
:103E10008091E80082FDEACF8091E80080FFE1CF49
:103E20008091F3002091F200382F6115710519F08F
:103E30002830310558F091E02830310509F090E044
:103E40008091E8008E778093E800CBCF84918093B7
:103E5000F1003196615071092F5F3F4FE6CF80919D
:103E6000B402882341F0853041F08091E80083FF5F
:103E7000BDCF81E0089582E0089583E00895982FF2
:103E8000973028F08F708093E90081E00895909337
:103E9000E900242F762F50E0981731F07091EC0054
:103EA0002091ED005091F00021FD02C09F5FE8CF0E
:103EB0003091EB003E7F3093EB003091ED003D7F81
:103EC0003093ED003091EB0031603093EB00709354
:103ED000EC002093ED005093F0002091EE0027FDC0
:103EE000E5CF80E008958091B50287FF13C08091EF
:103EF000E80082FF06C08091E8008B778093E8009D
:103F000004C08091B4028111F2CF08958091B4026F
:103F10008823D9F38091E80080FFF8CF8091E800F2
:103F20008E77ECCF2091E4003091E50095E6A90171
:103F30002091EC00822F817020FF06C08091E80064
:103F400080FF06C080E008952091E80022FD1AC09D
:103F50008091B402882389F0853089F08091EB004C
:103F600085FD0FC02091E4003091E5004217530712
:103F7000F9F29150E1F684E0089582E0089583E03B
:103F8000089581E0089567D06ED0E0EEF0E0808182
:103F900081608083E8EDF0E080818F77808319BCB9
:103FA000A7EDB0E08C918E7F8C9380818F7E808393
:103FB0001092B30208950F931F93CF93DF934BD0CA
:103FC00052D0C8EDD0E088818F778883888180685F
:103FD000888388818F7D888319BC1092B4021092E7
:103FE000B0021092B2021092B10200EE10E0F8019D
:103FF00080818B7F808388818160888342E060E05C
:1040000080E03DDFE1EEF0E080818E7F8083E2EEB4
:10401000F0E0808181608083808188608083F80106
:1040200080818E7F8083888180618883DF91CF91BA
:104030001F910F910895E8EDF0E080818F7E8083DD
:10404000E7EDF0E080818160808384E082BF81E0E1
:104050008093B302B0CFE8EDF0E080818E7F808363
:104060001092E20008951092DA001092E100089593
:104070001F920F920FB60F9211242F933F934F93DD
:104080005F936F937F938F939F93AF93BF93EF93C0
:10409000FF938091E10082FF0AC08091E20082FFDD
:1040A00006C08091E1008B7F8093E1002DD280914A
:1040B000DA0080FF18C08091D80080FF14C0809182
:1040C000DA008E7F8093DA008091D90080FF91C062
:1040D00080E189BD82E189BD09B400FEFDCF81E0A8
:1040E0008093B40231DC8091E10080FF18C08091A0
:1040F000E20080FF14C08091E2008E7F8093E20096
:104100008091E20080618093E2008091D80080621B
:104110008093D80019BC85E08093B40227DC80919D
:10412000E10084FF2AC08091E20084FF26C080E184
:1041300089BD82E189BD89B5982F917080FFFBCF41
:104140008091D8008F7D8093D8008091E1008F7E90
:104150008093E1008091E2008F7E8093E200809165
:10416000E20081608093E2008091B002882309F42C
:1041700045C084E08093B40200DC8091E10083FFBD
:1041800027C08091E20083FF23C08091E100877FF8
:104190008093E10082E08093B4021092B00280919B
:1041A000E1008E7F8093E1008091E2008E7F80931A
:1041B000E2008091E20080618093E20042E060E0F2
:1041C00080E05DDE8091F00088608093F000CBDBC2
:1041D000FF91EF91BF91AF919F918F917F916F91DF
:1041E0005F914F913F912F910F900FBE0F901F90B5
:1041F000189519BC1092B402B3DB75CF8091E3001F
:1042000087FD93E09093B402B7CF1F920F920FB641
:104210000F9211242F933F934F935F936F937F934C
:104220008F939F93AF93BF93CF93DF93EF93FF93BE
:10423000D091E900DF708091EC00C82FC17080FD43
:10424000C0E81092E9008091F000877F8093F00031
:1042500078941ED01092E9008091F00088608093DD
:10426000F000CD2BCF70C093E900FF91EF91DF916B
:10427000CF91BF91AF919F918F917F916F915F91FE
:104280004F913F912F910F900FBE0F901F90189557
:10429000AAE2B0E0EDE4F1E28BC185EB92E020917F
:1042A000F100FC012193CF01F2E08D3B9F07B9F7AC
:1042B0007EDB8091E80083FF16C18091B50290916A
:1042C000B6029A3008F00FC1E92FF0E0E456FC4D39
:1042D0005AC1803899F0823809F005C18091B9023D
:1042E0008F70873008F0FFC08093E9008091EB0069
:1042F00085FB882780F91092E90006C08091B10201
:104300009091B202911182609091E800977F909312
:10431000E8008093F1001092F1008091E8008E7720
:10432000DFC0882309F4CDC0823009F0DCC0809161
:10433000B7028111D0C08091B9028F702FEF280F82
:10434000263008F0D0C08093E9002091EB0020FFD8
:10435000C2C0933031F48091EB0080628093EB0017
:10436000BAC09091EB0090619093EB0021E030E0B7
:1043700001C0220F8A95EAF72093EA001092EA0022
:104380008091EB008860EACF8111ADC01091B70237
:104390001F778091E3008078812B8093E3008091E8
:1043A000E800877F8093E8009EDD8091E80080FF31
:1043B000FCCF8091E30080688093E30082E01111DC
:1043C00083E08093B4028FC08058823008F08BC0A5
:1043D0008091B7029091B8028C3D23E0920799F545
:1043E00083E08A838AE289834FB7F894DE011396CB
:1043F00020E03EE051E2E32FF0E050935700E491DB
:1044000020FF03C0E295EF703F5FEF708E2F90E0CA
:10441000EA30B8F0C7968D939D932F5F243159F7FA
:104420004FBF8091E800877F8093E8006AE270E0E8
:10443000CE01019667DC8091E8008B778093E800DD
:1044400052C0C096E8CF6091B9027091BA02AE0135
:104450004F5F5F4F96DBBC01892B09F444C09091FC
:10446000E800977F9093E80089819A81A9DCE3CFE7
:104470008038C9F58091E800877F8093E8008091BB
:10448000B0028093F10049CF81112DC09091B70205
:10449000923048F58091E800877F8093E800909300
:1044A000B00221DD8091B002882311F084E005C0C4
:1044B0008091E30087FDFACF81E08093B40266DA51
:1044C00012C08091B702813071F481E0933009F01D
:1044D00080E08093B2021092E9008091E800877F2B
:1044E0008093E80000DD8091E80083FF0AC080919E
:1044F000E800877F8093E8008091EB0080628093E2
:10450000EB00AA96E3E070C00895CF938091B402C7
:10451000882399F0C091E900CF709091EC00892F29
:10452000817090FD80E8C82B1092E9008091E8002E
:1045300083FDAEDECF70C093E900CF91089523DDF7
:104540001092B4020895E8EDF0E0808180618083EC
:104550008AE18A95F1F700C08091D90081700895B1
:1045600097FB072E16F4009406D077FD08D048D0AC
:1045700007FC05D03EF4909581959F4F0895709566
:1045800061957F4F0895EE0FFF1F0590F491E02D88
:1045900009942F923F924F925F926F927F928F92E7
:1045A0009F92AF92BF92CF92DF92EF92FF920F93C2
:1045B0001F93CF93DF93CDB7DEB7CA1BDB0B0FB6CC
:1045C000F894DEBF0FBECDBF09942A883988488889
:1045D0005F846E847D848C849B84AA84B984C8841F
:1045E000DF80EE80FD800C811B81AA81B981CE0F16
:1045F000D11D0FB6F894DEBF0FBECDBFED010895FB
:10460000AA1BBB1B51E107C0AA1FBB1FA617B707F8
:1046100010F0A61BB70B881F991F5A95A9F7809514
:104620009095BC01CD010895FB01DC0104C08D9182
:104630000190801921F441505040C8F7881B990B14
:104640000895FB01DC0102C001900D9241505040E1
:10465000D8F70895F999FECF92BD81BDF89A9927B0
:1046600080B50895A8E1B0E042E050E020C0262FD8
:10467000F999FECF92BD81BDF89A019700B4021658
:1046800039F01FBA20BD0FB6F894FA9AF99A0FBE06
:1046900008950396272FECDFEADF252FE9DF242F8B
:1046A000E7CF0196272FE4DFE2CFDC01CB01FC014D
:1046B000F999FECF06C0F2BDE1BDF89A319600B47B
:1046C0000D9241505040B8F70895F894FFCFA604DA
:1046D000A604DC04DC0435055105CE04CE045505E2
:1046E000BE05CA05CA05BD142F15C5148F14931431
:1046F000C9149714CD14D914A3142815A714DD14C4
:10470000AB14E1140915AF14E5141015B514EB142E
:10471000F3149B14D1149F14D514B914EF14FF147F
:10472000191526158914C114361529182F181918AA
:10473000231835183B1841186921912173229121C2
:0C4740007322C421E42173223822442299
:10474C00260201000000010000000000000005012D
:10475C0000000004060000000000002808503C0780
:10476C001400000100B919901C621C8B1C861CE201
:10477C0000E900EA00B500B600B700CD008301CC1B
:10478C00008A0192019401210223022402250226AF
:10479C000227022A02B300B4006F0070009F01CB05
:1047AC00019F02A002818283E200E900EA00B500C9
:1047BC00B600B700CD008301CC008A0192019401B0
:1047CC002102230224022502260227022A02B30018
:1047DC00B4006F0070009F01CB019F02A002818288
:0E47EC0083946697C63435F7313332364E0269
:00000001FF
